:10814C001408FFFFFFFF8388C88288C7C0AF860072
:06815C000000000000001D
:10811200E4F527F526F525F524E47F407E1FFDFCD6
:10812200AB27AA26A925A824C3128163501BE4FA0F
:10813200F9F8E5272401F527EA3526F526E935255C
:09814200F525E83524F52480D070
:01814B002211
:10808C0090E8037480F0E4F522F523F51CF51D75DA
:10809C001E00751F0DD3E5239400E52264809480A7
:1080AC00404C1281120523E523700205221424088A
:1080BC00F8E6FFE4FDFCEF752000F521530780EF97
:1080CC0090E8017003F080037401F090E8027401F1
:1080DC00F0E4F0AF21EF25E0FF0DBD00010CED64E5
:1080EC00094C70D2E523152370AB152280A71281A1
:1080FC0012051DE51D7002051CC39401E51C64806E
:06810C009480408B80808E
:030000000280007B
:0C800000787FE4F6D8FD758127028047E8
:10816300EB9FF5F0EA9E42F0E99D42F0EC6480C893
:0681730064809845F02233
:10800C0002808CE493A3F8E493A34003F68001F27E
:10801C0008DFF48029E493A3F85407240CC8C33375
:10802C00C4540F4420C8834004F456800146F6DF44
:10803C00E4800B010204081020408090814CE47E07
:10804C00019360BCA3FF543F30E509541FFEE49339
:10805C00A360010ECF54C025E060A840B8E493A300
:10806C00FAE493A3F8E493A3C8C582C8CAC583CA2B
:10807C00F0A3C8C582C8CAC583CADFE9DEE780BEE3
:01816200001C
:00000001FF
